{
  "_format": "hh-sol-artifact-1",
  "contractName": "MerkleRootStore",
  "sourceName": "contracts/MerkleRootStore.sol",
  "abi": [
    {
      "inputs": [],
      "name": "getMerkleRoot",
      "outputs": [
        {
          "internalType": "bytes32",
          "name": "",
          "type": "bytes32"
        }
      ],
      "stateMutability": "view",
      "type": "function"
    },
    {
      "inputs": [],
      "name": "merkleRoot",
      "outputs": [
        {
          "internalType": "bytes32",
          "name": "",
          "type": "bytes32"
        }
      ],
      "stateMutability": "view",
      "type": "function"
    },
    {
      "inputs": [
        {
          "internalType": "bytes32",
          "name": "_merkleRoot",
          "type": "bytes32"
        }
      ],
      "name": "storeMerkleRoot",
      "outputs": [],
      "stateMutability": "nonpayable",
      "type": "function"
    }
  ],
  "bytecode": "0x608060405234801561001057600080fd5b5061017f806100206000396000f3fe608060405234801561001057600080fd5b50600436106100415760003560e01c80632eb4a7ab146100465780634959065714610064578063665267a014610082575b600080fd5b61004e61009e565b60405161005b91906100d0565b60405180910390f35b61006c6100a4565b60405161007991906100d0565b60405180910390f35b61009c6004803603810190610097919061011c565b6100ad565b005b60005481565b60008054905090565b8060008190555050565b6000819050919050565b6100ca816100b7565b82525050565b60006020820190506100e560008301846100c1565b92915050565b600080fd5b6100f9816100b7565b811461010457600080fd5b50565b600081359050610116816100f0565b92915050565b600060208284031215610132576101316100eb565b5b600061014084828501610107565b9150509291505056fea26469706673582212200879435820e6969293e2c0af97995f2e6628d73808fc97c863a8cd78671428fe64736f6c63430008140033",
  "linkReferences": {},
  "deployedLinkReferences": {}
}