{
  "_format": "hh-sol-artifact-1",
  "contractName": "ElectricityLabel",
  "sourceName": "contracts/ElectricityLabel.sol",
  "abi": [
    {
      "inputs": [
        {
          "internalType": "address",
          "name": "",
          "type": "address"
        },
        {
          "internalType": "uint256",
          "name": "",
          "type": "uint256"
        }
      ],
      "name": "electricityRecords",
      "outputs": [
        {
          "internalType": "uint256",
          "name": "amount",
          "type": "uint256"
        },
        {
          "internalType": "enum ElectricityLabel.ElectricityType",
          "name": "electricityType",
          "type": "uint8"
        },
        {
          "internalType": "enum ElectricityLabel.MethodType",
          "name": "method",
          "type": "uint8"
        }
      ],
      "stateMutability": "view",
      "type": "function"
    },
    {
      "inputs": [
        {
          "internalType": "enum ElectricityLabel.ElectricityType",
          "name": "_type",
          "type": "uint8"
        }
      ],
      "name": "electricityTypeToString",
      "outputs": [
        {
          "internalType": "string",
          "name": "",
          "type": "string"
        }
      ],
      "stateMutability": "pure",
      "type": "function"
    },
    {
      "inputs": [
        {
          "internalType": "address",
          "name": "_address",
          "type": "address"
        }
      ],
      "name": "getElectricityRecords",
      "outputs": [
        {
          "components": [
            {
              "internalType": "uint256",
              "name": "amount",
              "type": "uint256"
            },
            {
              "internalType": "enum ElectricityLabel.ElectricityType",
              "name": "electricityType",
              "type": "uint8"
            },
            {
              "internalType": "enum ElectricityLabel.MethodType",
              "name": "method",
              "type": "uint8"
            }
          ],
          "internalType": "struct ElectricityLabel.Electricity[]",
          "name": "",
          "type": "tuple[]"
        }
      ],
      "stateMutability": "view",
      "type": "function"
    },
    {
      "inputs": [
        {
          "internalType": "enum ElectricityLabel.MethodType",
          "name": "_method",
          "type": "uint8"
        }
      ],
      "name": "methodTypeToString",
      "outputs": [
        {
          "internalType": "string",
          "name": "",
          "type": "string"
        }
      ],
      "stateMutability": "pure",
      "type": "function"
    },
    {
      "inputs": [
        {
          "internalType": "address",
          "name": "_address",
          "type": "address"
        },
        {
          "internalType": "uint256",
          "name": "_amount",
          "type": "uint256"
        },
        {
          "internalType": "enum ElectricityLabel.ElectricityType",
          "name": "_electricityType",
          "type": "uint8"
        },
        {
          "internalType": "enum ElectricityLabel.MethodType",
          "name": "_method",
          "type": "uint8"
        }
      ],
      "name": "recordElectricity",
      "outputs": [],
      "stateMutability": "nonpayable",
      "type": "function"
    }
  ],
  "bytecode": "0x608060405234801561001057600080fd5b50610d84806100206000396000f3fe608060405234801561001057600080fd5b50600436106100575760003560e01c80634ddd9a641461005c578063548885c51461008e5780639fb00207146100aa578063a6e6dd35146100da578063bbf87acb1461010a575b600080fd5b61007660048036038101906100719190610775565b61013a565b60405161008593929190610883565b60405180910390f35b6100a860048036038101906100a39190610904565b61019b565b005b6100c460048036038101906100bf919061096b565b610329565b6040516100d19190610a28565b60405180910390f35b6100f460048036038101906100ef9190610a4a565b61043c565b6040516101019190610b95565b60405180910390f35b610124600480360381019061011f9190610bb7565b6105c9565b6040516101319190610a28565b60405180910390f35b6000602052816000526040600020818154811061015657600080fd5b9060005260206000209060020201600091509150508060000154908060010160009054906101000a900460ff16908060010160019054906101000a900460ff16905083565b838073ffffffffffffffffffffffffffffffffffffffff163373ffffffffffffffffffffffffffffffffffffffff161461020a576040517f08c379a000000000000000000000000000000000000000000000000000000000815260040161020190610c56565b60405180910390fd5b600060405180606001604052808681526020018560018111156102305761022f6107c4565b5b8152602001846001811115610248576102476107c4565b5b81525090506000808773ffffffffffffffffffffffffffffffffffffffff1673ffffffffffffffffffffffffffffffffffffffff1681526020019081526020016000208190806001815401808255809150506001900390600052602060002090600202016000909190919091506000820151816000015560208201518160010160006101000a81548160ff021916908360018111156102ea576102e96107c4565b5b021790555060408201518160010160016101000a81548160ff0219169083600181111561031a576103196107c4565b5b02179055505050505050505050565b606081600181111561033e5761033d6107c4565b5b60006001811115610352576103516107c4565b5b03610394576040518060400160405280600581526020017f475245454e0000000000000000000000000000000000000000000000000000008152509050610437565b8160018111156103a7576103a66107c4565b5b6001808111156103ba576103b96107c4565b5b036103fc576040518060400160405280600481526020017f47524159000000000000000000000000000000000000000000000000000000008152509050610437565b6040517f08c379a000000000000000000000000000000000000000000000000000000000815260040161042e90610cc2565b60405180910390fd5b919050565b6060818073ffffffffffffffffffffffffffffffffffffffff163373ffffffffffffffffffffffffffffffffffffffff16146104ad576040517f08c379a00000000000000000000000000000000000000000000000000000000081526004016104a490610c56565b60405180910390fd5b6000808473ffffffffffffffffffffffffffffffffffffffff1673ffffffffffffffffffffffffffffffffffffffff168152602001908152602001600020805480602002602001604051908101604052809291908181526020016000905b828210156105bd5783829060005260206000209060020201604051806060016040529081600082015481526020016001820160009054906101000a900460ff16600181111561055d5761055c6107c4565b5b600181111561056f5761056e6107c4565b5b81526020016001820160019054906101000a900460ff166001811115610598576105976107c4565b5b60018111156105aa576105a96107c4565b5b815250508152602001906001019061050b565b50505050915050919050565b60608160018111156105de576105dd6107c4565b5b600060018111156105f2576105f16107c4565b5b03610634576040518060400160405280600881526020017f434f4e53554d454400000000000000000000000000000000000000000000000081525090506106d7565b816001811115610647576106466107c4565b5b60018081111561065a576106596107c4565b5b0361069c576040518060400160405280600981526020017f47454e455241544544000000000000000000000000000000000000000000000081525090506106d7565b6040517f08c379a00000000000000000000000000000000000000000000000000000000081526004016106ce90610d2e565b60405180910390fd5b919050565b600080fd5b600073ffffffffffffffffffffffffffffffffffffffff82169050919050565b600061070c826106e1565b9050919050565b61071c81610701565b811461072757600080fd5b50565b60008135905061073981610713565b92915050565b6000819050919050565b6107528161073f565b811461075d57600080fd5b50565b60008135905061076f81610749565b92915050565b6000806040838503121561078c5761078b6106dc565b5b600061079a8582860161072a565b92505060206107ab85828601610760565b9150509250929050565b6107be8161073f565b82525050565b7f4e487b7100000000000000000000000000000000000000000000000000000000600052602160045260246000fd5b60028110610804576108036107c4565b5b50565b6000819050610815826107f3565b919050565b600061082582610807565b9050919050565b6108358161081a565b82525050565b6002811061084c5761084b6107c4565b5b50565b600081905061085d8261083b565b919050565b600061086d8261084f565b9050919050565b61087d81610862565b82525050565b600060608201905061089860008301866107b5565b6108a5602083018561082c565b6108b26040830184610874565b949350505050565b600281106108c757600080fd5b50565b6000813590506108d9816108ba565b92915050565b600281106108ec57600080fd5b50565b6000813590506108fe816108df565b92915050565b6000806000806080858703121561091e5761091d6106dc565b5b600061092c8782880161072a565b945050602061093d87828801610760565b935050604061094e878288016108ca565b925050606061095f878288016108ef565b91505092959194509250565b600060208284031215610981576109806106dc565b5b600061098f848285016108ca565b91505092915050565b600081519050919050565b600082825260208201905092915050565b60005b838110156109d25780820151818401526020810190506109b7565b60008484015250505050565b6000601f19601f8301169050919050565b60006109fa82610998565b610a0481856109a3565b9350610a148185602086016109b4565b610a1d816109de565b840191505092915050565b60006020820190508181036000830152610a4281846109ef565b905092915050565b600060208284031215610a6057610a5f6106dc565b5b6000610a6e8482850161072a565b91505092915050565b600081519050919050565b600082825260208201905092915050565b6000819050602082019050919050565b610aac8161073f565b82525050565b610abb8161081a565b82525050565b610aca81610862565b82525050565b606082016000820151610ae66000850182610aa3565b506020820151610af96020850182610ab2565b506040820151610b0c6040850182610ac1565b50505050565b6000610b1e8383610ad0565b60608301905092915050565b6000602082019050919050565b6000610b4282610a77565b610b4c8185610a82565b9350610b5783610a93565b8060005b83811015610b88578151610b6f8882610b12565b9750610b7a83610b2a565b925050600181019050610b5b565b5085935050505092915050565b60006020820190508181036000830152610baf8184610b37565b905092915050565b600060208284031215610bcd57610bcc6106dc565b5b6000610bdb848285016108ef565b91505092915050565b7f43616c6c6572206973206e6f742074686520737065636966696564206164647260008201527f6573730000000000000000000000000000000000000000000000000000000000602082015250565b6000610c406023836109a3565b9150610c4b82610be4565b604082019050919050565b60006020820190508181036000830152610c6f81610c33565b9050919050565b7f496e76616c696420656c65637472696369747920747970650000000000000000600082015250565b6000610cac6018836109a3565b9150610cb782610c76565b602082019050919050565b60006020820190508181036000830152610cdb81610c9f565b9050919050565b7f496e76616c6964206d6574686f64207479706500000000000000000000000000600082015250565b6000610d186013836109a3565b9150610d2382610ce2565b602082019050919050565b60006020820190508181036000830152610d4781610d0b565b905091905056fea2646970667358221220161c0f4660a0e9596107be604f790ddce22e1802ab6d23a994508ab764859e8f64736f6c63430008140033",
  "linkReferences": {},
  "deployedLinkReferences": {}
}